{
  "_format": "hh-sol-artifact-1",
  "contractName": "GMON",
  "sourceName": "contracts/NFT.sol",
  "abi": [
    {
      "inputs": [],
      "stateMutability": "nonpayable",
      "type": "constructor"
    },
    {
      "anonymous": false,
      "inputs": [
        {
          "indexed": true,
          "internalType": "address",
          "name": "owner",
          "type": "address"
        },
        {
          "indexed": true,
          "internalType": "address",
          "name": "approved",
          "type": "address"
        },
        {
          "indexed": true,
          "internalType": "uint256",
          "name": "tokenId",
          "type": "uint256"
        }
      ],
      "name": "Approval",
      "type": "event"
    },
    {
      "anonymous": false,
      "inputs": [
        {
          "indexed": true,
          "internalType": "address",
          "name": "owner",
          "type": "address"
        },
        {
          "indexed": true,
          "internalType": "address",
          "name": "operator",
          "type": "address"
        },
        {
          "indexed": false,
          "internalType": "bool",
          "name": "approved",
          "type": "bool"
        }
      ],
      "name": "ApprovalForAll",
      "type": "event"
    },
    {
      "anonymous": false,
      "inputs": [
        {
          "indexed": true,
          "internalType": "address",
          "name": "previousOwner",
          "type": "address"
        },
        {
          "indexed": true,
          "internalType": "address",
          "name": "newOwner",
          "type": "address"
        }
      ],
      "name": "OwnershipTransferred",
      "type": "event"
    },
    {
      "anonymous": false,
      "inputs": [
        {
          "indexed": true,
          "internalType": "address",
          "name": "from",
          "type": "address"
        },
        {
          "indexed": true,
          "internalType": "address",
          "name": "to",
          "type": "address"
        },
        {
          "indexed": true,
          "internalType": "uint256",
          "name": "tokenId",
          "type": "uint256"
        }
      ],
      "name": "Transfer",
      "type": "event"
    },
    {
      "inputs": [
        {
          "internalType": "address",
          "name": "to",
          "type": "address"
        },
        {
          "internalType": "uint256",
          "name": "tokenId",
          "type": "uint256"
        }
      ],
      "name": "approve",
      "outputs": [],
      "stateMutability": "nonpayable",
      "type": "function"
    },
    {
      "inputs": [
        {
          "internalType": "address",
          "name": "owner",
          "type": "address"
        }
      ],
      "name": "balanceOf",
      "outputs": [
        {
          "internalType": "uint256",
          "name": "",
          "type": "uint256"
        }
      ],
      "stateMutability": "view",
      "type": "function"
    },
    {
      "inputs": [
        {
          "internalType": "uint256",
          "name": "tokenId",
          "type": "uint256"
        }
      ],
      "name": "getApproved",
      "outputs": [
        {
          "internalType": "address",
          "name": "",
          "type": "address"
        }
      ],
      "stateMutability": "view",
      "type": "function"
    },
    {
      "inputs": [],
      "name": "getCurrentTokenID",
      "outputs": [
        {
          "internalType": "uint256",
          "name": "",
          "type": "uint256"
        }
      ],
      "stateMutability": "view",
      "type": "function"
    },
    {
      "inputs": [
        {
          "internalType": "address",
          "name": "owner",
          "type": "address"
        },
        {
          "internalType": "address",
          "name": "operator",
          "type": "address"
        }
      ],
      "name": "isApprovedForAll",
      "outputs": [
        {
          "internalType": "bool",
          "name": "",
          "type": "bool"
        }
      ],
      "stateMutability": "view",
      "type": "function"
    },
    {
      "inputs": [
        {
          "internalType": "string",
          "name": "metadataURI",
          "type": "string"
        }
      ],
      "name": "mint",
      "outputs": [],
      "stateMutability": "payable",
      "type": "function"
    },
    {
      "inputs": [],
      "name": "name",
      "outputs": [
        {
          "internalType": "string",
          "name": "",
          "type": "string"
        }
      ],
      "stateMutability": "view",
      "type": "function"
    },
    {
      "inputs": [],
      "name": "owner",
      "outputs": [
        {
          "internalType": "address",
          "name": "",
          "type": "address"
        }
      ],
      "stateMutability": "view",
      "type": "function"
    },
    {
      "inputs": [
        {
          "internalType": "uint256",
          "name": "tokenId",
          "type": "uint256"
        }
      ],
      "name": "ownerOf",
      "outputs": [
        {
          "internalType": "address",
          "name": "",
          "type": "address"
        }
      ],
      "stateMutability": "view",
      "type": "function"
    },
    {
      "inputs": [],
      "name": "renounceOwnership",
      "outputs": [],
      "stateMutability": "nonpayable",
      "type": "function"
    },
    {
      "inputs": [
        {
          "internalType": "address",
          "name": "from",
          "type": "address"
        },
        {
          "internalType": "address",
          "name": "to",
          "type": "address"
        },
        {
          "internalType": "uint256",
          "name": "tokenId",
          "type": "uint256"
        }
      ],
      "name": "safeTransferFrom",
      "outputs": [],
      "stateMutability": "nonpayable",
      "type": "function"
    },
    {
      "inputs": [
        {
          "internalType": "address",
          "name": "from",
          "type": "address"
        },
        {
          "internalType": "address",
          "name": "to",
          "type": "address"
        },
        {
          "internalType": "uint256",
          "name": "tokenId",
          "type": "uint256"
        },
        {
          "internalType": "bytes",
          "name": "data",
          "type": "bytes"
        }
      ],
      "name": "safeTransferFrom",
      "outputs": [],
      "stateMutability": "nonpayable",
      "type": "function"
    },
    {
      "inputs": [
        {
          "internalType": "address",
          "name": "operator",
          "type": "address"
        },
        {
          "internalType": "bool",
          "name": "approved",
          "type": "bool"
        }
      ],
      "name": "setApprovalForAll",
      "outputs": [],
      "stateMutability": "nonpayable",
      "type": "function"
    },
    {
      "inputs": [
        {
          "internalType": "bytes4",
          "name": "interfaceId",
          "type": "bytes4"
        }
      ],
      "name": "supportsInterface",
      "outputs": [
        {
          "internalType": "bool",
          "name": "",
          "type": "bool"
        }
      ],
      "stateMutability": "view",
      "type": "function"
    },
    {
      "inputs": [],
      "name": "symbol",
      "outputs": [
        {
          "internalType": "string",
          "name": "",
          "type": "string"
        }
      ],
      "stateMutability": "view",
      "type": "function"
    },
    {
      "inputs": [
        {
          "internalType": "uint256",
          "name": "index",
          "type": "uint256"
        }
      ],
      "name": "tokenByIndex",
      "outputs": [
        {
          "internalType": "uint256",
          "name": "",
          "type": "uint256"
        }
      ],
      "stateMutability": "view",
      "type": "function"
    },
    {
      "inputs": [
        {
          "internalType": "address",
          "name": "owner",
          "type": "address"
        },
        {
          "internalType": "uint256",
          "name": "index",
          "type": "uint256"
        }
      ],
      "name": "tokenOfOwnerByIndex",
      "outputs": [
        {
          "internalType": "uint256",
          "name": "",
          "type": "uint256"
        }
      ],
      "stateMutability": "view",
      "type": "function"
    },
    {
      "inputs": [
        {
          "internalType": "uint256",
          "name": "tokenId",
          "type": "uint256"
        }
      ],
      "name": "tokenURI",
      "outputs": [
        {
          "internalType": "string",
          "name": "",
          "type": "string"
        }
      ],
      "stateMutability": "view",
      "type": "function"
    },
    {
      "inputs": [],
      "name": "totalSupply",
      "outputs": [
        {
          "internalType": "uint256",
          "name": "",
          "type": "uint256"
        }
      ],
      "stateMutability": "view",
      "type": "function"
    },
    {
      "inputs": [
        {
          "internalType": "address",
          "name": "to",
          "type": "address"
        },
        {
          "internalType": "uint256",
          "name": "tokenId",
          "type": "uint256"
        }
      ],
      "name": "transfer",
      "outputs": [],
      "stateMutability": "nonpayable",
      "type": "function"
    },
    {
      "inputs": [
        {
          "internalType": "address",
          "name": "from",
          "type": "address"
        },
        {
          "internalType": "address",
          "name": "to",
          "type": "address"
        },
        {
          "internalType": "uint256",
          "name": "tokenId",
          "type": "uint256"
        }
      ],
      "name": "transferFrom",
      "outputs": [],
      "stateMutability": "nonpayable",
      "type": "function"
    },
    {
      "inputs": [
        {
          "internalType": "address",
          "name": "newOwner",
          "type": "address"
        }
      ],
      "name": "transferOwnership",
      "outputs": [],
      "stateMutability": "nonpayable",
      "type": "function"
    }
  ],
  "bytecode": "0x60806040523480156200001157600080fd5b506040518060400160405280600981526020017f476f65726c694d6f6e00000000000000000000000000000000000000000000008152506040518060400160405280600481526020017f474d4f4e00000000000000000000000000000000000000000000000000000000815250816000908051906020019062000096929190620001a6565b508060019080519060200190620000af929190620001a6565b505050620000d2620000c6620000d860201b60201c565b620000e060201b60201c565b620002bb565b600033905090565b6000600b60009054906101000a900473ffffffffffffffffffffffffffffffffffffffff16905081600b60006101000a81548173ffffffffffffffffffffffffffffffffffffffff021916908373ffffffffffffffffffffffffffffffffffffffff1602179055508173ffffffffffffffffffffffffffffffffffffffff168173ffffffffffffffffffffffffffffffffffffffff167f8be0079c531659141344cd1fd0a4f28419497f9722a3daafe3b4186f6b6457e060405160405180910390a35050565b828054620001b49062000256565b90600052602060002090601f016020900481019282620001d8576000855562000224565b82601f10620001f357805160ff191683800117855562000224565b8280016001018555821562000224579182015b828111156200022357825182559160200191906001019062000206565b5b50905062000233919062000237565b5090565b5b808211156200025257600081600090555060010162000238565b5090565b600060028204905060018216806200026f57607f821691505b602082108114156200028657620002856200028c565b5b50919050565b7f4e487b7100000000000000000000000000000000000000000000000000000000600052602260045260246000fd5b61377680620002cb6000396000f3fe6080604052600436106101355760003560e01c8063715018a6116100ab578063b88d4fde1161006f578063b88d4fde14610438578063c4a6d0d214610461578063c87b56dd1461048c578063d85d3d27146104c9578063e985e9c5146104e5578063f2fde38b1461052257610135565b8063715018a6146103795780638da5cb5b1461039057806395d89b41146103bb578063a22cb465146103e6578063a9059cbb1461040f57610135565b806323b872dd116100fd57806323b872dd146102335780632f745c591461025c57806342842e0e146102995780634f6ccce7146102c25780636352211e146102ff57806370a082311461033c57610135565b806301ffc9a71461013a57806306fdde0314610177578063081812fc146101a2578063095ea7b3146101df57806318160ddd14610208575b600080fd5b34801561014657600080fd5b50610161600480360381019061015c9190612775565b61054b565b60405161016e9190612bf6565b60405180910390f35b34801561018357600080fd5b5061018c61055d565b6040516101999190612c11565b60405180910390f35b3480156101ae57600080fd5b506101c960048036038101906101c49190612808565b6105ef565b6040516101d69190612b8f565b60405180910390f35b3480156101eb57600080fd5b5061020660048036038101906102019190612739565b610635565b005b34801561021457600080fd5b5061021d61074d565b60405161022a9190612e53565b60405180910390f35b34801561023f57600080fd5b5061025a60048036038101906102559190612633565b61075a565b005b34801561026857600080fd5b50610283600480360381019061027e9190612739565b6107ba565b6040516102909190612e53565b60405180910390f35b3480156102a557600080fd5b506102c060048036038101906102bb9190612633565b61085f565b005b3480156102ce57600080fd5b506102e960048036038101906102e49190612808565b61087f565b6040516102f69190612e53565b60405180910390f35b34801561030b57600080fd5b5061032660048036038101906103219190612808565b610916565b6040516103339190612b8f565b60405180910390f35b34801561034857600080fd5b50610363600480360381019061035e91906125ce565b6109c8565b6040516103709190612e53565b60405180910390f35b34801561038557600080fd5b5061038e610a80565b005b34801561039c57600080fd5b506103a5610a94565b6040516103b29190612b8f565b60405180910390f35b3480156103c757600080fd5b506103d0610abe565b6040516103dd9190612c11565b60405180910390f35b3480156103f257600080fd5b5061040d600480360381019061040891906126fd565b610b50565b005b34801561041b57600080fd5b5061043660048036038101906104319190612739565b610b66565b005b34801561044457600080fd5b5061045f600480360381019061045a9190612682565b610b7b565b005b34801561046d57600080fd5b50610476610bdd565b6040516104839190612e53565b60405180910390f35b34801561049857600080fd5b506104b360048036038101906104ae9190612808565b610bee565b6040516104c09190612c11565b60405180910390f35b6104e360048036038101906104de91906127c7565b610c00565b005b3480156104f157600080fd5b5061050c600480360381019061050791906125f7565b610cf2565b6040516105199190612bf6565b60405180910390f35b34801561052e57600080fd5b50610549600480360381019061054491906125ce565b610d86565b005b600061055682610e0a565b9050919050565b60606000805461056c906130a9565b80601f0160208091040260200160405190810160405280929190818152602001828054610598906130a9565b80156105e55780601f106105ba576101008083540402835291602001916105e5565b820191906000526020600020905b8154815290600101906020018083116105c857829003601f168201915b5050505050905090565b60006105fa82610e84565b6004600083815260200190815260200160002060009054906101000a900473ffffffffffffffffffffffffffffffffffffffff169050919050565b600061064082610916565b90508073ffffffffffffffffffffffffffffffffffffffff168373ffffffffffffffffffffffffffffffffffffffff1614156106b1576040517f08c379a00000000000000000000000000000000000000000000000000000000081526004016106a890612df3565b60405180910390fd5b8073ffffffffffffffffffffffffffffffffffffffff166106d0610ecf565b73ffffffffffffffffffffffffffffffffffffffff1614806106ff57506106fe816106f9610ecf565b610cf2565b5b61073e576040517f08c379a000000000000000000000000000000000000000000000000000000000815260040161073590612d73565b60405180910390fd5b6107488383610ed7565b505050565b6000600880549050905090565b61076b610765610ecf565b82610f90565b6107aa576040517f08c379a00000000000000000000000000000000000000000000000000000000081526004016107a190612e33565b60405180910390fd5b6107b5838383611025565b505050565b60006107c5836109c8565b8210610806576040517f08c379a00000000000000000000000000000000000000000000000000000000081526004016107fd90612c33565b60405180910390fd5b600660008473ffffffffffffffffffffffffffffffffffffffff1673ffffffffffffffffffffffffffffffffffffffff168152602001908152602001600020600083815260200190815260200160002054905092915050565b61087a83838360405180602001604052806000815250610b7b565b505050565b600061088961074d565b82106108ca576040517f08c379a00000000000000000000000000000000000000000000000000000000081526004016108c190612e13565b60405180910390fd5b60088281548110610904577f4e487b7100000000000000000000000000000000000000000000000000000000600052603260045260246000fd5b90600052602060002001549050919050565b6000806002600084815260200190815260200160002060009054906101000a900473ffffffffffffffffffffffffffffffffffffffff169050600073ffffffffffffffffffffffffffffffffffffffff168173ffffffffffffffffffffffffffffffffffffffff1614156109bf576040517f08c379a00000000000000000000000000000000000000000000000000000000081526004016109b690612dd3565b60405180910390fd5b80915050919050565b60008073ffffffffffffffffffffffffffffffffffffffff168273ffffffffffffffffffffffffffffffffffffffff161415610a39576040517f08c379a0000000000000000000000000000000000000000000000000000000008152600401610a3090612d33565b60405180910390fd5b600360008373ffffffffffffffffffffffffffffffffffffffff1673ffffffffffffffffffffffffffffffffffffffff168152602001908152602001600020549050919050565b610a8861128c565b610a92600061130a565b565b6000600b60009054906101000a900473ffffffffffffffffffffffffffffffffffffffff16905090565b606060018054610acd906130a9565b80601f0160208091040260200160405190810160405280929190818152602001828054610af9906130a9565b8015610b465780601f10610b1b57610100808354040283529160200191610b46565b820191906000526020600020905b815481529060010190602001808311610b2957829003601f168201915b5050505050905090565b610b62610b5b610ecf565b83836113d0565b5050565b6000339050610b76818484611025565b505050565b610b8c610b86610ecf565b83610f90565b610bcb576040517f08c379a0000000000000000000000000000000000000000000000000000000008152600401610bc290612e33565b60405180910390fd5b610bd78484848461153d565b50505050565b6000610be9600c611599565b905090565b6060610bf9826115a7565b9050919050565b655af3107a40003414610c1257600080fd5b6001600d82604051610c249190612b54565b908152602001604051809103902060009054906101000a900460ff1660ff161415610c84576040517f08c379a0000000000000000000000000000000000000000000000000000000008152600401610c7b90612cf3565b60405180910390fd5b60003390506000610c95600c611599565b9050610ca182826116ba565b610cab81846116d8565b610cb5600c6116e6565b6001600d84604051610cc79190612b54565b908152602001604051809103902060006101000a81548160ff021916908360ff160217905550505050565b6000600560008473ffffffffffffffffffffffffffffffffffffffff1673ffffffffffffffffffffffffffffffffffffffff16815260200190815260200160002060008373ffffffffffffffffffffffffffffffffffffffff1673ffffffffffffffffffffffffffffffffffffffff16815260200190815260200160002060009054906101000a900460ff16905092915050565b610d8e61128c565b600073ffffffffffffffffffffffffffffffffffffffff168173ffffffffffffffffffffffffffffffffffffffff161415610dfe576040517f08c379a0000000000000000000000000000000000000000000000000000000008152600401610df590612c73565b60405180910390fd5b610e078161130a565b50565b60007f780e9d63000000000000000000000000000000000000000000000000000000007bffffffffffffffffffffffffffffffffffffffffffffffffffffffff1916827bffffffffffffffffffffffffffffffffffffffffffffffffffffffff19161480610e7d5750610e7c826116fc565b5b9050919050565b610e8d816117de565b610ecc576040517f08c379a0000000000000000000000000000000000000000000000000000000008152600401610ec390612dd3565b60405180910390fd5b50565b600033905090565b816004600083815260200190815260200160002060006101000a81548173ffffffffffffffffffffffffffffffffffffffff021916908373ffffffffffffffffffffffffffffffffffffffff160217905550808273ffffffffffffffffffffffffffffffffffffffff16610f4a83610916565b73ffffffffffffffffffffffffffffffffffffffff167f8c5be1e5ebec7d5bd14f71427d1e84f3dd0314c0f7b2291e5b200ac8c7c3b92560405160405180910390a45050565b600080610f9c83610916565b90508073ffffffffffffffffffffffffffffffffffffffff168473ffffffffffffffffffffffffffffffffffffffff161480610fde5750610fdd8185610cf2565b5b8061101c57508373ffffffffffffffffffffffffffffffffffffffff16611004846105ef565b73ffffffffffffffffffffffffffffffffffffffff16145b91505092915050565b8273ffffffffffffffffffffffffffffffffffffffff1661104582610916565b73ffffffffffffffffffffffffffffffffffffffff161461109b576040517f08c379a000000000000000000000000000000000000000000000000000000000815260040161109290612c93565b60405180910390fd5b600073ffffffffffffffffffffffffffffffffffffffff168273ffffffffffffffffffffffffffffffffffffffff16141561110b576040517f08c379a000000000000000000000000000000000000000000000000000000000815260040161110290612cd3565b60405180910390fd5b61111683838361184a565b611121600082610ed7565b6001600360008573ffffffffffffffffffffffffffffffffffffffff1673ffffffffffffffffffffffffffffffffffffffff16815260200190815260200160002060008282546111719190612fbf565b925050819055506001600360008473ffffffffffffffffffffffffffffffffffffffff1673ffffffffffffffffffffffffffffffffffffffff16815260200190815260200160002060008282546111c89190612f38565b92505081905550816002600083815260200190815260200160002060006101000a81548173ffffffffffffffffffffffffffffffffffffffff021916908373ffffffffffffffffffffffffffffffffffffffff160217905550808273ffffffffffffffffffffffffffffffffffffffff168473ffffffffffffffffffffffffffffffffffffffff167fddf252ad1be2c89b69c2b068fc378daa952ba7f163c4a11628f55a4df523b3ef60405160405180910390a461128783838361185a565b505050565b611294610ecf565b73ffffffffffffffffffffffffffffffffffffffff166112b2610a94565b73ffffffffffffffffffffffffffffffffffffffff1614611308576040517f08c379a00000000000000000000000000000000000000000000000000000000081526004016112ff90612db3565b60405180910390fd5b565b6000600b60009054906101000a900473ffffffffffffffffffffffffffffffffffffffff16905081600b60006101000a81548173ffffffffffffffffffffffffffffffffffffffff021916908373ffffffffffffffffffffffffffffffffffffffff1602179055508173ffffffffffffffffffffffffffffffffffffffff168173ffffffffffffffffffffffffffffffffffffffff167f8be0079c531659141344cd1fd0a4f28419497f9722a3daafe3b4186f6b6457e060405160405180910390a35050565b8173ffffffffffffffffffffffffffffffffffffffff168373ffffffffffffffffffffffffffffffffffffffff16141561143f576040517f08c379a000000000000000000000000000000000000000000000000000000000815260040161143690612d13565b60405180910390fd5b80600560008573ffffffffffffffffffffffffffffffffffffffff1673ffffffffffffffffffffffffffffffffffffffff16815260200190815260200160002060008473ffffffffffffffffffffffffffffffffffffffff1673ffffffffffffffffffffffffffffffffffffffff16815260200190815260200160002060006101000a81548160ff0219169083151502179055508173ffffffffffffffffffffffffffffffffffffffff168373ffffffffffffffffffffffffffffffffffffffff167f17307eab39ab6107e8899845ad3d59bd9653f200f220920489ca2b5937696c31836040516115309190612bf6565b60405180910390a3505050565b611548848484611025565b6115548484848461185f565b611593576040517f08c379a000000000000000000000000000000000000000000000000000000000815260040161158a90612c53565b60405180910390fd5b50505050565b600081600001549050919050565b60606115b282610e84565b6000600a600084815260200190815260200160002080546115d2906130a9565b80601f01602080910402602001604051908101604052809291908181526020018280546115fe906130a9565b801561164b5780601f106116205761010080835404028352916020019161164b565b820191906000526020600020905b81548152906001019060200180831161162e57829003601f168201915b50505050509050600061165c6119f6565b90506000815114156116725781925050506116b5565b6000825111156116a757808260405160200161168f929190612b6b565b604051602081830303815290604052925050506116b5565b6116b084611a16565b925050505b919050565b6116d4828260405180602001604052806000815250611a7e565b5050565b6116e28282611ad9565b5050565b6001816000016000828254019250508190555050565b60007f80ac58cd000000000000000000000000000000000000000000000000000000007bffffffffffffffffffffffffffffffffffffffffffffffffffffffff1916827bffffffffffffffffffffffffffffffffffffffffffffffffffffffff191614806117c757507f5b5e139f000000000000000000000000000000000000000000000000000000007bffffffffffffffffffffffffffffffffffffffffffffffffffffffff1916827bffffffffffffffffffffffffffffffffffffffffffffffffffffffff1916145b806117d757506117d682611b4d565b5b9050919050565b60008073ffffffffffffffffffffffffffffffffffffffff166002600084815260200190815260200160002060009054906101000a900473ffffffffffffffffffffffffffffffffffffffff1673ffffffffffffffffffffffffffffffffffffffff1614159050919050565b611855838383611bb7565b505050565b505050565b60006118808473ffffffffffffffffffffffffffffffffffffffff16611ccb565b156119e9578373ffffffffffffffffffffffffffffffffffffffff1663150b7a026118a9610ecf565b8786866040518563ffffffff1660e01b81526004016118cb9493929190612baa565b602060405180830381600087803b1580156118e557600080fd5b505af192505050801561191657506040513d601f19601f82011682018060405250810190611913919061279e565b60015b611999573d8060008114611946576040519150601f19603f3d011682016040523d82523d6000602084013e61194b565b606091505b50600081511415611991576040517f08c379a000000000000000000000000000000000000000000000000000000000815260040161198890612c53565b60405180910390fd5b805181602001fd5b63150b7a0260e01b7bffffffffffffffffffffffffffffffffffffffffffffffffffffffff1916817bffffffffffffffffffffffffffffffffffffffffffffffffffffffff1916149150506119ee565b600190505b949350505050565b606060405180606001604052806036815260200161370b60369139905090565b6060611a2182610e84565b6000611a2b6119f6565b90506000815111611a4b5760405180602001604052806000815250611a76565b80611a5584611cee565b604051602001611a66929190612b6b565b6040516020818303038152906040525b915050919050565b611a888383611e9b565b611a95600084848461185f565b611ad4576040517f08c379a0000000000000000000000000000000000000000000000000000000008152600401611acb90612c53565b60405180910390fd5b505050565b611ae2826117de565b611b21576040517f08c379a0000000000000000000000000000000000000000000000000000000008152600401611b1890612d53565b60405180910390fd5b80600a60008481526020019081526020016000209080519060200190611b489291906123f2565b505050565b60007f01ffc9a7000000000000000000000000000000000000000000000000000000007bffffffffffffffffffffffffffffffffffffffffffffffffffffffff1916827bffffffffffffffffffffffffffffffffffffffffffffffffffffffff1916149050919050565b611bc2838383612075565b600073ffffffffffffffffffffffffffffffffffffffff168373ffffffffffffffffffffffffffffffffffffffff161415611c0557611c008161207a565b611c44565b8173ffffffffffffffffffffffffffffffffffffffff168373ffffffffffffffffffffffffffffffffffffffff1614611c4357611c4283826120c3565b5b5b600073ffffffffffffffffffffffffffffffffffffffff168273ffffffffffffffffffffffffffffffffffffffff161415611c8757611c8281612230565b611cc6565b8273ffffffffffffffffffffffffffffffffffffffff168273ffffffffffffffffffffffffffffffffffffffff1614611cc557611cc48282612373565b5b5b505050565b6000808273ffffffffffffffffffffffffffffffffffffffff163b119050919050565b60606000821415611d36576040518060400160405280600181526020017f30000000000000000000000000000000000000000000000000000000000000008152509050611e96565b600082905060005b60008214611d68578080611d519061310c565b915050600a82611d619190612f8e565b9150611d3e565b60008167ffffffffffffffff811115611daa577f4e487b7100000000000000000000000000000000000000000000000000000000600052604160045260246000fd5b6040519080825280601f01601f191660200182016040528015611ddc5781602001600182028036833780820191505090505b5090505b60008514611e8f57600182611df59190612fbf565b9150600a85611e049190613155565b6030611e109190612f38565b60f81b818381518110611e4c577f4e487b7100000000000000000000000000000000000000000000000000000000600052603260045260246000fd5b60200101907effffffffffffffffffffffffffffffffffffffffffffffffffffffffffffff1916908160001a905350600a85611e889190612f8e565b9450611de0565b8093505050505b919050565b600073ffffffffffffffffffffffffffffffffffffffff168273ffffffffffffffffffffffffffffffffffffffff161415611f0b576040517f08c379a0000000000000000000000000000000000000000000000000000000008152600401611f0290612d93565b60405180910390fd5b611f14816117de565b15611f54576040517f08c379a0000000000000000000000000000000000000000000000000000000008152600401611f4b90612cb3565b60405180910390fd5b611f606000838361184a565b6001600360008473ffffffffffffffffffffffffffffffffffffffff1673ffffffffffffffffffffffffffffffffffffffff1681526020019081526020016000206000828254611fb09190612f38565b92505081905550816002600083815260200190815260200160002060006101000a81548173ffffffffffffffffffffffffffffffffffffffff021916908373ffffffffffffffffffffffffffffffffffffffff160217905550808273ffffffffffffffffffffffffffffffffffffffff16600073ffffffffffffffffffffffffffffffffffffffff167fddf252ad1be2c89b69c2b068fc378daa952ba7f163c4a11628f55a4df523b3ef60405160405180910390a46120716000838361185a565b5050565b505050565b6008805490506009600083815260200190815260200160002081905550600881908060018154018082558091505060019003906000526020600020016000909190919091505550565b600060016120d0846109c8565b6120da9190612fbf565b90506000600760008481526020019081526020016000205490508181146121bf576000600660008673ffffffffffffffffffffffffffffffffffffffff1673ffffffffffffffffffffffffffffffffffffffff168152602001908152602001600020600084815260200190815260200160002054905080600660008773ffffffffffffffffffffffffffffffffffffffff1673ffffffffffffffffffffffffffffffffffffffff168152602001908152602001600020600084815260200190815260200160002081905550816007600083815260200190815260200160002081905550505b6007600084815260200190815260200160002060009055600660008573ffffffffffffffffffffffffffffffffffffffff1673ffffffffffffffffffffffffffffffffffffffff16815260200190815260200160002060008381526020019081526020016000206000905550505050565b600060016008805490506122449190612fbf565b905060006009600084815260200190815260200160002054905060006008838154811061229a577f4e487b7100000000000000000000000000000000000000000000000000000000600052603260045260246000fd5b9060005260206000200154905080600883815481106122e2577f4e487b7100000000000000000000000000000000000000000000000000000000600052603260045260246000fd5b906000526020600020018190555081600960008381526020019081526020016000208190555060096000858152602001908152602001600020600090556008805480612357577f4e487b7100000000000000000000000000000000000000000000000000000000600052603160045260246000fd5b6001900381819060005260206000200160009055905550505050565b600061237e836109c8565b905081600660008573ffffffffffffffffffffffffffffffffffffffff1673ffffffffffffffffffffffffffffffffffffffff168152602001908152602001600020600083815260200190815260200160002081905550806007600084815260200190815260200160002081905550505050565b8280546123fe906130a9565b90600052602060002090601f0160209004810192826124205760008555612467565b82601f1061243957805160ff1916838001178555612467565b82800160010185558215612467579182015b8281111561246657825182559160200191906001019061244b565b5b5090506124749190612478565b5090565b5b80821115612491576000816000905550600101612479565b5090565b60006124a86124a384612e93565b612e6e565b9050828152602081018484840111156124c057600080fd5b6124cb848285613067565b509392505050565b60006124e66124e184612ec4565b612e6e565b9050828152602081018484840111156124fe57600080fd5b612509848285613067565b509392505050565b600081359050612520816136ae565b92915050565b600081359050612535816136c5565b92915050565b60008135905061254a816136dc565b92915050565b60008151905061255f816136dc565b92915050565b600082601f83011261257657600080fd5b8135612586848260208601612495565b91505092915050565b600082601f8301126125a057600080fd5b81356125b08482602086016124d3565b91505092915050565b6000813590506125c8816136f3565b92915050565b6000602082840312156125e057600080fd5b60006125ee84828501612511565b91505092915050565b6000806040838503121561260a57600080fd5b600061261885828601612511565b925050602061262985828601612511565b9150509250929050565b60008060006060848603121561264857600080fd5b600061265686828701612511565b935050602061266786828701612511565b9250506040612678868287016125b9565b9150509250925092565b6000806000806080858703121561269857600080fd5b60006126a687828801612511565b94505060206126b787828801612511565b93505060406126c8878288016125b9565b925050606085013567ffffffffffffffff8111156126e557600080fd5b6126f187828801612565565b91505092959194509250565b6000806040838503121561271057600080fd5b600061271e85828601612511565b925050602061272f85828601612526565b9150509250929050565b6000806040838503121561274c57600080fd5b600061275a85828601612511565b925050602061276b858286016125b9565b9150509250929050565b60006020828403121561278757600080fd5b60006127958482850161253b565b91505092915050565b6000602082840312156127b057600080fd5b60006127be84828501612550565b91505092915050565b6000602082840312156127d957600080fd5b600082013567ffffffffffffffff8111156127f357600080fd5b6127ff8482850161258f565b91505092915050565b60006020828403121561281a57600080fd5b6000612828848285016125b9565b91505092915050565b61283a81612ff3565b82525050565b61284981613005565b82525050565b600061285a82612ef5565b6128648185612f0b565b9350612874818560208601613076565b61287d81613242565b840191505092915050565b600061289382612f00565b61289d8185612f1c565b93506128ad818560208601613076565b6128b681613242565b840191505092915050565b60006128cc82612f00565b6128d68185612f2d565b93506128e6818560208601613076565b80840191505092915050565b60006128ff602b83612f1c565b915061290a82613253565b604082019050919050565b6000612922603283612f1c565b915061292d826132a2565b604082019050919050565b6000612945602683612f1c565b9150612950826132f1565b604082019050919050565b6000612968602583612f1c565b915061297382613340565b604082019050919050565b600061298b601c83612f1c565b91506129968261338f565b602082019050919050565b60006129ae602483612f1c565b91506129b9826133b8565b604082019050919050565b60006129d1601283612f1c565b91506129dc82613407565b602082019050919050565b60006129f4601983612f1c565b91506129ff82613430565b602082019050919050565b6000612a17602983612f1c565b9150612a2282613459565b604082019050919050565b6000612a3a602e83612f1c565b9150612a45826134a8565b604082019050919050565b6000612a5d603e83612f1c565b9150612a68826134f7565b604082019050919050565b6000612a80602083612f1c565b9150612a8b82613546565b602082019050919050565b6000612aa3602083612f1c565b9150612aae8261356f565b602082019050919050565b6000612ac6601883612f1c565b9150612ad182613598565b602082019050919050565b6000612ae9602183612f1c565b9150612af4826135c1565b604082019050919050565b6000612b0c602c83612f1c565b9150612b1782613610565b604082019050919050565b6000612b2f602e83612f1c565b9150612b3a8261365f565b604082019050919050565b612b4e8161305d565b82525050565b6000612b6082846128c1565b915081905092915050565b6000612b7782856128c1565b9150612b8382846128c1565b91508190509392505050565b6000602082019050612ba46000830184612831565b92915050565b6000608082019050612bbf6000830187612831565b612bcc6020830186612831565b612bd96040830185612b45565b8181036060830152612beb818461284f565b905095945050505050565b6000602082019050612c0b6000830184612840565b92915050565b60006020820190508181036000830152612c2b8184612888565b905092915050565b60006020820190508181036000830152612c4c816128f2565b9050919050565b60006020820190508181036000830152612c6c81612915565b9050919050565b60006020820190508181036000830152612c8c81612938565b9050919050565b60006020820190508181036000830152612cac8161295b565b9050919050565b60006020820190508181036000830152612ccc8161297e565b9050919050565b60006020820190508181036000830152612cec816129a1565b9050919050565b60006020820190508181036000830152612d0c816129c4565b9050919050565b60006020820190508181036000830152612d2c816129e7565b9050919050565b60006020820190508181036000830152612d4c81612a0a565b9050919050565b60006020820190508181036000830152612d6c81612a2d565b9050919050565b60006020820190508181036000830152612d8c81612a50565b9050919050565b60006020820190508181036000830152612dac81612a73565b9050919050565b60006020820190508181036000830152612dcc81612a96565b9050919050565b60006020820190508181036000830152612dec81612ab9565b9050919050565b60006020820190508181036000830152612e0c81612adc565b9050919050565b60006020820190508181036000830152612e2c81612aff565b9050919050565b60006020820190508181036000830152612e4c81612b22565b9050919050565b6000602082019050612e686000830184612b45565b92915050565b6000612e78612e89565b9050612e8482826130db565b919050565b6000604051905090565b600067ffffffffffffffff821115612eae57612ead613213565b5b612eb782613242565b9050602081019050919050565b600067ffffffffffffffff821115612edf57612ede613213565b5b612ee882613242565b9050602081019050919050565b600081519050919050565b600081519050919050565b600082825260208201905092915050565b600082825260208201905092915050565b600081905092915050565b6000612f438261305d565b9150612f4e8361305d565b9250827fffffffffffffffffffffffffffffffffffffffffffffffffffffffffffffffff03821115612f8357612f82613186565b5b828201905092915050565b6000612f998261305d565b9150612fa48361305d565b925082612fb457612fb36131b5565b5b828204905092915050565b6000612fca8261305d565b9150612fd58361305d565b925082821015612fe857612fe7613186565b5b828203905092915050565b6000612ffe8261303d565b9050919050565b60008115159050919050565b60007fffffffff0000000000000000000000000000000000000000000000000000000082169050919050565b600073ffffffffffffffffffffffffffffffffffffffff82169050919050565b6000819050919050565b82818337600083830152505050565b60005b83811015613094578082015181840152602081019050613079565b838111156130a3576000848401525b50505050565b600060028204905060018216806130c157607f821691505b602082108114156130d5576130d46131e4565b5b50919050565b6130e482613242565b810181811067ffffffffffffffff8211171561310357613102613213565b5b80604052505050565b60006131178261305d565b91507fffffffffffffffffffffffffffffffffffffffffffffffffffffffffffffffff82141561314a57613149613186565b5b600182019050919050565b60006131608261305d565b915061316b8361305d565b92508261317b5761317a6131b5565b5b828206905092915050565b7f4e487b7100000000000000000000000000000000000000000000000000000000600052601160045260246000fd5b7f4e487b7100000000000000000000000000000000000000000000000000000000600052601260045260246000fd5b7f4e487b7100000000000000000000000000000000000000000000000000000000600052602260045260246000fd5b7f4e487b7100000000000000000000000000000000000000000000000000000000600052604160045260246000fd5b6000601f19601f8301169050919050565b7f455243373231456e756d657261626c653a206f776e657220696e646578206f7560008201527f74206f6620626f756e6473000000000000000000000000000000000000000000602082015250565b7f4552433732313a207472616e7366657220746f206e6f6e20455243373231526560008201527f63656976657220696d706c656d656e7465720000000000000000000000000000602082015250565b7f4f776e61626c653a206e6577206f776e657220697320746865207a65726f206160008201527f6464726573730000000000000000000000000000000000000000000000000000602082015250565b7f4552433732313a207472616e736665722066726f6d20696e636f72726563742060008201527f6f776e6572000000000000000000000000000000000000000000000000000000602082015250565b7f4552433732313a20746f6b656e20616c7265616479206d696e74656400000000600082015250565b7f4552433732313a207472616e7366657220746f20746865207a65726f2061646460008201527f7265737300000000000000000000000000000000000000000000000000000000602082015250565b7f4e465420616c7265616479206d696e7465640000000000000000000000000000600082015250565b7f4552433732313a20617070726f766520746f2063616c6c657200000000000000600082015250565b7f4552433732313a2061646472657373207a65726f206973206e6f74206120766160008201527f6c6964206f776e65720000000000000000000000000000000000000000000000602082015250565b7f45524337323155524953746f726167653a2055524920736574206f66206e6f6e60008201527f6578697374656e7420746f6b656e000000000000000000000000000000000000602082015250565b7f4552433732313a20617070726f76652063616c6c6572206973206e6f7420746f60008201527f6b656e206f776e6572206e6f7220617070726f76656420666f7220616c6c0000602082015250565b7f4552433732313a206d696e7420746f20746865207a65726f2061646472657373600082015250565b7f4f776e61626c653a2063616c6c6572206973206e6f7420746865206f776e6572600082015250565b7f4552433732313a20696e76616c696420746f6b656e2049440000000000000000600082015250565b7f4552433732313a20617070726f76616c20746f2063757272656e74206f776e6560008201527f7200000000000000000000000000000000000000000000000000000000000000602082015250565b7f455243373231456e756d657261626c653a20676c6f62616c20696e646578206f60008201527f7574206f6620626f756e64730000000000000000000000000000000000000000602082015250565b7f4552433732313a2063616c6c6572206973206e6f7420746f6b656e206f776e6560008201527f72206e6f7220617070726f766564000000000000000000000000000000000000602082015250565b6136b781612ff3565b81146136c257600080fd5b50565b6136ce81613005565b81146136d957600080fd5b50565b6136e581613011565b81146136f057600080fd5b50565b6136fc8161305d565b811461370757600080fd5b5056fe697066733a2f2f516d516658386e4e75344841504d4e79584a697352445445314c77636f376f576553577142323432524e4141347a2fa2646970667358221220de40ca7e24704057c00e5c6d89674b8f1c64c2636e6bc3b0e387271577baadd164736f6c63430008040033",
  "linkReferences": {},
  "deployedLinkReferences": {}
}