{
    "_format": "hh-sol-artifact-1",
    "contractName": "MyNFT",
    "sourceName": "contracts/NFT.sol",
    "abi": [
        {
            "inputs": [],
            "stateMutability": "nonpayable",
            "type": "constructor"
        },
        {
            "anonymous": false,
            "inputs": [
                {
                    "indexed": true,
                    "internalType": "address",
                    "name": "owner",
                    "type": "address"
                },
                {
                    "indexed": true,
                    "internalType": "address",
                    "name": "approved",
                    "type": "address"
                },
                {
                    "indexed": true,
                    "internalType": "uint256",
                    "name": "tokenId",
                    "type": "uint256"
                }
            ],
            "name": "Approval",
            "type": "event"
        },
        {
            "anonymous": false,
            "inputs": [
                {
                    "indexed": true,
                    "internalType": "address",
                    "name": "owner",
                    "type": "address"
                },
                {
                    "indexed": true,
                    "internalType": "address",
                    "name": "operator",
                    "type": "address"
                },
                {
                    "indexed": false,
                    "internalType": "bool",
                    "name": "approved",
                    "type": "bool"
                }
            ],
            "name": "ApprovalForAll",
            "type": "event"
        },
        {
            "anonymous": false,
            "inputs": [
                {
                    "indexed": true,
                    "internalType": "address",
                    "name": "previousOwner",
                    "type": "address"
                },
                {
                    "indexed": true,
                    "internalType": "address",
                    "name": "newOwner",
                    "type": "address"
                }
            ],
            "name": "OwnershipTransferred",
            "type": "event"
        },
        {
            "anonymous": false,
            "inputs": [
                {
                    "indexed": true,
                    "internalType": "address",
                    "name": "from",
                    "type": "address"
                },
                {
                    "indexed": true,
                    "internalType": "address",
                    "name": "to",
                    "type": "address"
                },
                {
                    "indexed": true,
                    "internalType": "uint256",
                    "name": "tokenId",
                    "type": "uint256"
                }
            ],
            "name": "Transfer",
            "type": "event"
        },
        {
            "inputs": [
                {
                    "internalType": "address",
                    "name": "to",
                    "type": "address"
                },
                {
                    "internalType": "uint256",
                    "name": "tokenId",
                    "type": "uint256"
                }
            ],
            "name": "approve",
            "outputs": [],
            "stateMutability": "nonpayable",
            "type": "function"
        },
        {
            "inputs": [
                {
                    "internalType": "address",
                    "name": "owner",
                    "type": "address"
                }
            ],
            "name": "balanceOf",
            "outputs": [
                {
                    "internalType": "uint256",
                    "name": "",
                    "type": "uint256"
                }
            ],
            "stateMutability": "view",
            "type": "function"
        },
        {
            "inputs": [
                {
                    "internalType": "uint256",
                    "name": "tokenId",
                    "type": "uint256"
                }
            ],
            "name": "getApproved",
            "outputs": [
                {
                    "internalType": "address",
                    "name": "",
                    "type": "address"
                }
            ],
            "stateMutability": "view",
            "type": "function"
        },
        {
            "inputs": [],
            "name": "getCurrentTokenID",
            "outputs": [
                {
                    "internalType": "uint256",
                    "name": "",
                    "type": "uint256"
                }
            ],
            "stateMutability": "view",
            "type": "function"
        },
        {
            "inputs": [
                {
                    "internalType": "address",
                    "name": "owner",
                    "type": "address"
                },
                {
                    "internalType": "address",
                    "name": "operator",
                    "type": "address"
                }
            ],
            "name": "isApprovedForAll",
            "outputs": [
                {
                    "internalType": "bool",
                    "name": "",
                    "type": "bool"
                }
            ],
            "stateMutability": "view",
            "type": "function"
        },
        {
            "inputs": [
                {
                    "internalType": "string",
                    "name": "metadataURI",
                    "type": "string"
                }
            ],
            "name": "mint",
            "outputs": [],
            "stateMutability": "payable",
            "type": "function"
        },
        {
            "inputs": [],
            "name": "name",
            "outputs": [
                {
                    "internalType": "string",
                    "name": "",
                    "type": "string"
                }
            ],
            "stateMutability": "view",
            "type": "function"
        },
        {
            "inputs": [],
            "name": "owner",
            "outputs": [
                {
                    "internalType": "address",
                    "name": "",
                    "type": "address"
                }
            ],
            "stateMutability": "view",
            "type": "function"
        },
        {
            "inputs": [
                {
                    "internalType": "uint256",
                    "name": "tokenId",
                    "type": "uint256"
                }
            ],
            "name": "ownerOf",
            "outputs": [
                {
                    "internalType": "address",
                    "name": "",
                    "type": "address"
                }
            ],
            "stateMutability": "view",
            "type": "function"
        },
        {
            "inputs": [],
            "name": "renounceOwnership",
            "outputs": [],
            "stateMutability": "nonpayable",
            "type": "function"
        },
        {
            "inputs": [
                {
                    "internalType": "address",
                    "name": "from",
                    "type": "address"
                },
                {
                    "internalType": "address",
                    "name": "to",
                    "type": "address"
                },
                {
                    "internalType": "uint256",
                    "name": "tokenId",
                    "type": "uint256"
                }
            ],
            "name": "safeTransferFrom",
            "outputs": [],
            "stateMutability": "nonpayable",
            "type": "function"
        },
        {
            "inputs": [
                {
                    "internalType": "address",
                    "name": "from",
                    "type": "address"
                },
                {
                    "internalType": "address",
                    "name": "to",
                    "type": "address"
                },
                {
                    "internalType": "uint256",
                    "name": "tokenId",
                    "type": "uint256"
                },
                {
                    "internalType": "bytes",
                    "name": "data",
                    "type": "bytes"
                }
            ],
            "name": "safeTransferFrom",
            "outputs": [],
            "stateMutability": "nonpayable",
            "type": "function"
        },
        {
            "inputs": [
                {
                    "internalType": "address",
                    "name": "operator",
                    "type": "address"
                },
                {
                    "internalType": "bool",
                    "name": "approved",
                    "type": "bool"
                }
            ],
            "name": "setApprovalForAll",
            "outputs": [],
            "stateMutability": "nonpayable",
            "type": "function"
        },
        {
            "inputs": [
                {
                    "internalType": "bytes4",
                    "name": "interfaceId",
                    "type": "bytes4"
                }
            ],
            "name": "supportsInterface",
            "outputs": [
                {
                    "internalType": "bool",
                    "name": "",
                    "type": "bool"
                }
            ],
            "stateMutability": "view",
            "type": "function"
        },
        {
            "inputs": [],
            "name": "symbol",
            "outputs": [
                {
                    "internalType": "string",
                    "name": "",
                    "type": "string"
                }
            ],
            "stateMutability": "view",
            "type": "function"
        },
        {
            "inputs": [
                {
                    "internalType": "uint256",
                    "name": "index",
                    "type": "uint256"
                }
            ],
            "name": "tokenByIndex",
            "outputs": [
                {
                    "internalType": "uint256",
                    "name": "",
                    "type": "uint256"
                }
            ],
            "stateMutability": "view",
            "type": "function"
        },
        {
            "inputs": [
                {
                    "internalType": "address",
                    "name": "owner",
                    "type": "address"
                },
                {
                    "internalType": "uint256",
                    "name": "index",
                    "type": "uint256"
                }
            ],
            "name": "tokenOfOwnerByIndex",
            "outputs": [
                {
                    "internalType": "uint256",
                    "name": "",
                    "type": "uint256"
                }
            ],
            "stateMutability": "view",
            "type": "function"
        },
        {
            "inputs": [
                {
                    "internalType": "uint256",
                    "name": "tokenId",
                    "type": "uint256"
                }
            ],
            "name": "tokenURI",
            "outputs": [
                {
                    "internalType": "string",
                    "name": "",
                    "type": "string"
                }
            ],
            "stateMutability": "view",
            "type": "function"
        },
        {
            "inputs": [],
            "name": "totalSupply",
            "outputs": [
                {
                    "internalType": "uint256",
                    "name": "",
                    "type": "uint256"
                }
            ],
            "stateMutability": "view",
            "type": "function"
        },
        {
            "inputs": [
                {
                    "internalType": "address",
                    "name": "to",
                    "type": "address"
                },
                {
                    "internalType": "uint256",
                    "name": "tokenId",
                    "type": "uint256"
                }
            ],
            "name": "transfer",
            "outputs": [],
            "stateMutability": "nonpayable",
            "type": "function"
        },
        {
            "inputs": [
                {
                    "internalType": "address",
                    "name": "from",
                    "type": "address"
                },
                {
                    "internalType": "address",
                    "name": "to",
                    "type": "address"
                },
                {
                    "internalType": "uint256",
                    "name": "tokenId",
                    "type": "uint256"
                }
            ],
            "name": "transferFrom",
            "outputs": [],
            "stateMutability": "nonpayable",
            "type": "function"
        },
        {
            "inputs": [
                {
                    "internalType": "address",
                    "name": "newOwner",
                    "type": "address"
                }
            ],
            "name": "transferOwnership",
            "outputs": [],
            "stateMutability": "nonpayable",
            "type": "function"
        }
    ],
    "bytecode": "0x60806040523480156200001157600080fd5b506040518060400160405280600581526020017f4d794e46540000000000000000000000000000000000000000000000000000008152506040518060400160405280600481526020017f4d4e465400000000000000000000000000000000000000000000000000000000815250816000908051906020019062000096929190620001a6565b508060019080519060200190620000af929190620001a6565b505050620000d2620000c6620000d860201b60201c565b620000e060201b60201c565b620002bb565b600033905090565b6000600b60009054906101000a900473ffffffffffffffffffffffffffffffffffffffff16905081600b60006101000a81548173ffffffffffffffffffffffffffffffffffffffff021916908373ffffffffffffffffffffffffffffffffffffffff1602179055508173ffffffffffffffffffffffffffffffffffffffff168173ffffffffffffffffffffffffffffffffffffffff167f8be0079c531659141344cd1fd0a4f28419497f9722a3daafe3b4186f6b6457e060405160405180910390a35050565b828054620001b49062000256565b90600052602060002090601f016020900481019282620001d8576000855562000224565b82601f10620001f357805160ff191683800117855562000224565b8280016001018555821562000224579182015b828111156200022357825182559160200191906001019062000206565b5b50905062000233919062000237565b5090565b5b808211156200025257600081600090555060010162000238565b5090565b600060028204905060018216806200026f57607f821691505b602082108114156200028657620002856200028c565b5b50919050565b7f4e487b7100000000000000000000000000000000000000000000000000000000600052602260045260246000fd5b61375d80620002cb6000396000f3fe6080604052600436106101355760003560e01c8063715018a6116100ab578063b88d4fde1161006f578063b88d4fde14610438578063c4a6d0d214610461578063c87b56dd1461048c578063d85d3d27146104c9578063e985e9c5146104e5578063f2fde38b1461052257610135565b8063715018a6146103795780638da5cb5b1461039057806395d89b41146103bb578063a22cb465146103e6578063a9059cbb1461040f57610135565b806323b872dd116100fd57806323b872dd146102335780632f745c591461025c57806342842e0e146102995780634f6ccce7146102c25780636352211e146102ff57806370a082311461033c57610135565b806301ffc9a71461013a57806306fdde0314610177578063081812fc146101a2578063095ea7b3146101df57806318160ddd14610208575b600080fd5b34801561014657600080fd5b50610161600480360381019061015c9190612792565b61054b565b60405161016e9190612c13565b60405180910390f35b34801561018357600080fd5b5061018c61055d565b6040516101999190612c2e565b60405180910390f35b3480156101ae57600080fd5b506101c960048036038101906101c49190612825565b6105ef565b6040516101d69190612bac565b60405180910390f35b3480156101eb57600080fd5b5061020660048036038101906102019190612756565b610635565b005b34801561021457600080fd5b5061021d61074d565b60405161022a9190612e70565b60405180910390f35b34801561023f57600080fd5b5061025a60048036038101906102559190612650565b61075a565b005b34801561026857600080fd5b50610283600480360381019061027e9190612756565b6107ba565b6040516102909190612e70565b60405180910390f35b3480156102a557600080fd5b506102c060048036038101906102bb9190612650565b61085f565b005b3480156102ce57600080fd5b506102e960048036038101906102e49190612825565b61087f565b6040516102f69190612e70565b60405180910390f35b34801561030b57600080fd5b5061032660048036038101906103219190612825565b610916565b6040516103339190612bac565b60405180910390f35b34801561034857600080fd5b50610363600480360381019061035e91906125eb565b6109c8565b6040516103709190612e70565b60405180910390f35b34801561038557600080fd5b5061038e610a80565b005b34801561039c57600080fd5b506103a5610a94565b6040516103b29190612bac565b60405180910390f35b3480156103c757600080fd5b506103d0610abe565b6040516103dd9190612c2e565b60405180910390f35b3480156103f257600080fd5b5061040d6004803603810190610408919061271a565b610b50565b005b34801561041b57600080fd5b5061043660048036038101906104319190612756565b610b66565b005b34801561044457600080fd5b5061045f600480360381019061045a919061269f565b610b7b565b005b34801561046d57600080fd5b50610476610bdd565b6040516104839190612e70565b60405180910390f35b34801561049857600080fd5b506104b360048036038101906104ae9190612825565b610bee565b6040516104c09190612c2e565b60405180910390f35b6104e360048036038101906104de91906127e4565b610c00565b005b3480156104f157600080fd5b5061050c60048036038101906105079190612614565b610cf2565b6040516105199190612c13565b60405180910390f35b34801561052e57600080fd5b50610549600480360381019061054491906125eb565b610d86565b005b600061055682610e0a565b9050919050565b60606000805461056c906130c6565b80601f0160208091040260200160405190810160405280929190818152602001828054610598906130c6565b80156105e55780601f106105ba576101008083540402835291602001916105e5565b820191906000526020600020905b8154815290600101906020018083116105c857829003601f168201915b5050505050905090565b60006105fa82610e84565b6004600083815260200190815260200160002060009054906101000a900473ffffffffffffffffffffffffffffffffffffffff169050919050565b600061064082610916565b90508073ffffffffffffffffffffffffffffffffffffffff168373ffffffffffffffffffffffffffffffffffffffff1614156106b1576040517f08c379a00000000000000000000000000000000000000000000000000000000081526004016106a890612e10565b60405180910390fd5b8073ffffffffffffffffffffffffffffffffffffffff166106d0610ecf565b73ffffffffffffffffffffffffffffffffffffffff1614806106ff57506106fe816106f9610ecf565b610cf2565b5b61073e576040517f08c379a000000000000000000000000000000000000000000000000000000000815260040161073590612d90565b60405180910390fd5b6107488383610ed7565b505050565b6000600880549050905090565b61076b610765610ecf565b82610f90565b6107aa576040517f08c379a00000000000000000000000000000000000000000000000000000000081526004016107a190612e50565b60405180910390fd5b6107b5838383611025565b505050565b60006107c5836109c8565b8210610806576040517f08c379a00000000000000000000000000000000000000000000000000000000081526004016107fd90612c50565b60405180910390fd5b600660008473ffffffffffffffffffffffffffffffffffffffff1673ffffffffffffffffffffffffffffffffffffffff168152602001908152602001600020600083815260200190815260200160002054905092915050565b61087a83838360405180602001604052806000815250610b7b565b505050565b600061088961074d565b82106108ca576040517f08c379a00000000000000000000000000000000000000000000000000000000081526004016108c190612e30565b60405180910390fd5b60088281548110610904577f4e487b7100000000000000000000000000000000000000000000000000000000600052603260045260246000fd5b90600052602060002001549050919050565b6000806002600084815260200190815260200160002060009054906101000a900473ffffffffffffffffffffffffffffffffffffffff169050600073ffffffffffffffffffffffffffffffffffffffff168173ffffffffffffffffffffffffffffffffffffffff1614156109bf576040517f08c379a00000000000000000000000000000000000000000000000000000000081526004016109b690612df0565b60405180910390fd5b80915050919050565b60008073ffffffffffffffffffffffffffffffffffffffff168273ffffffffffffffffffffffffffffffffffffffff161415610a39576040517f08c379a0000000000000000000000000000000000000000000000000000000008152600401610a3090612d50565b60405180910390fd5b600360008373ffffffffffffffffffffffffffffffffffffffff1673ffffffffffffffffffffffffffffffffffffffff168152602001908152602001600020549050919050565b610a8861128c565b610a92600061130a565b565b6000600b60009054906101000a900473ffffffffffffffffffffffffffffffffffffffff16905090565b606060018054610acd906130c6565b80601f0160208091040260200160405190810160405280929190818152602001828054610af9906130c6565b8015610b465780601f10610b1b57610100808354040283529160200191610b46565b820191906000526020600020905b815481529060010190602001808311610b2957829003601f168201915b5050505050905090565b610b62610b5b610ecf565b83836113d0565b5050565b6000339050610b76818484611025565b505050565b610b8c610b86610ecf565b83610f90565b610bcb576040517f08c379a0000000000000000000000000000000000000000000000000000000008152600401610bc290612e50565b60405180910390fd5b610bd78484848461153d565b50505050565b6000610be9600c611599565b905090565b6060610bf9826115a7565b9050919050565b655af3107a40003414610c1257600080fd5b6001600d82604051610c249190612b71565b908152602001604051809103902060009054906101000a900460ff1660ff161415610c84576040517f08c379a0000000000000000000000000000000000000000000000000000000008152600401610c7b90612d10565b60405180910390fd5b60003390506000610c95600c611599565b9050610ca182826116ba565b610cab81846116d8565b610cb5600c6116e6565b6001600d84604051610cc79190612b71565b908152602001604051809103902060006101000a81548160ff021916908360ff160217905550505050565b6000600560008473ffffffffffffffffffffffffffffffffffffffff1673ffffffffffffffffffffffffffffffffffffffff16815260200190815260200160002060008373ffffffffffffffffffffffffffffffffffffffff1673ffffffffffffffffffffffffffffffffffffffff16815260200190815260200160002060009054906101000a900460ff16905092915050565b610d8e61128c565b600073ffffffffffffffffffffffffffffffffffffffff168173ffffffffffffffffffffffffffffffffffffffff161415610dfe576040517f08c379a0000000000000000000000000000000000000000000000000000000008152600401610df590612c90565b60405180910390fd5b610e078161130a565b50565b60007f780e9d63000000000000000000000000000000000000000000000000000000007bffffffffffffffffffffffffffffffffffffffffffffffffffffffff1916827bffffffffffffffffffffffffffffffffffffffffffffffffffffffff19161480610e7d5750610e7c826116fc565b5b9050919050565b610e8d816117de565b610ecc576040517f08c379a0000000000000000000000000000000000000000000000000000000008152600401610ec390612df0565b60405180910390fd5b50565b600033905090565b816004600083815260200190815260200160002060006101000a81548173ffffffffffffffffffffffffffffffffffffffff021916908373ffffffffffffffffffffffffffffffffffffffff160217905550808273ffffffffffffffffffffffffffffffffffffffff16610f4a83610916565b73ffffffffffffffffffffffffffffffffffffffff167f8c5be1e5ebec7d5bd14f71427d1e84f3dd0314c0f7b2291e5b200ac8c7c3b92560405160405180910390a45050565b600080610f9c83610916565b90508073ffffffffffffffffffffffffffffffffffffffff168473ffffffffffffffffffffffffffffffffffffffff161480610fde5750610fdd8185610cf2565b5b8061101c57508373ffffffffffffffffffffffffffffffffffffffff16611004846105ef565b73ffffffffffffffffffffffffffffffffffffffff16145b91505092915050565b8273ffffffffffffffffffffffffffffffffffffffff1661104582610916565b73ffffffffffffffffffffffffffffffffffffffff161461109b576040517f08c379a000000000000000000000000000000000000000000000000000000000815260040161109290612cb0565b60405180910390fd5b600073ffffffffffffffffffffffffffffffffffffffff168273ffffffffffffffffffffffffffffffffffffffff16141561110b576040517f08c379a000000000000000000000000000000000000000000000000000000000815260040161110290612cf0565b60405180910390fd5b61111683838361184a565b611121600082610ed7565b6001600360008573ffffffffffffffffffffffffffffffffffffffff1673ffffffffffffffffffffffffffffffffffffffff16815260200190815260200160002060008282546111719190612fdc565b925050819055506001600360008473ffffffffffffffffffffffffffffffffffffffff1673ffffffffffffffffffffffffffffffffffffffff16815260200190815260200160002060008282546111c89190612f55565b92505081905550816002600083815260200190815260200160002060006101000a81548173ffffffffffffffffffffffffffffffffffffffff021916908373ffffffffffffffffffffffffffffffffffffffff160217905550808273ffffffffffffffffffffffffffffffffffffffff168473ffffffffffffffffffffffffffffffffffffffff167fddf252ad1be2c89b69c2b068fc378daa952ba7f163c4a11628f55a4df523b3ef60405160405180910390a461128783838361185a565b505050565b611294610ecf565b73ffffffffffffffffffffffffffffffffffffffff166112b2610a94565b73ffffffffffffffffffffffffffffffffffffffff1614611308576040517f08c379a00000000000000000000000000000000000000000000000000000000081526004016112ff90612dd0565b60405180910390fd5b565b6000600b60009054906101000a900473ffffffffffffffffffffffffffffffffffffffff16905081600b60006101000a81548173ffffffffffffffffffffffffffffffffffffffff021916908373ffffffffffffffffffffffffffffffffffffffff1602179055508173ffffffffffffffffffffffffffffffffffffffff168173ffffffffffffffffffffffffffffffffffffffff167f8be0079c531659141344cd1fd0a4f28419497f9722a3daafe3b4186f6b6457e060405160405180910390a35050565b8173ffffffffffffffffffffffffffffffffffffffff168373ffffffffffffffffffffffffffffffffffffffff16141561143f576040517f08c379a000000000000000000000000000000000000000000000000000000000815260040161143690612d30565b60405180910390fd5b80600560008573ffffffffffffffffffffffffffffffffffffffff1673ffffffffffffffffffffffffffffffffffffffff16815260200190815260200160002060008473ffffffffffffffffffffffffffffffffffffffff1673ffffffffffffffffffffffffffffffffffffffff16815260200190815260200160002060006101000a81548160ff0219169083151502179055508173ffffffffffffffffffffffffffffffffffffffff168373ffffffffffffffffffffffffffffffffffffffff167f17307eab39ab6107e8899845ad3d59bd9653f200f220920489ca2b5937696c31836040516115309190612c13565b60405180910390a3505050565b611548848484611025565b6115548484848461185f565b611593576040517f08c379a000000000000000000000000000000000000000000000000000000000815260040161158a90612c70565b60405180910390fd5b50505050565b600081600001549050919050565b60606115b282610e84565b6000600a600084815260200190815260200160002080546115d2906130c6565b80601f01602080910402602001604051908101604052809291908181526020018280546115fe906130c6565b801561164b5780601f106116205761010080835404028352916020019161164b565b820191906000526020600020905b81548152906001019060200180831161162e57829003601f168201915b50505050509050600061165c6119f6565b90506000815114156116725781925050506116b5565b6000825111156116a757808260405160200161168f929190612b88565b604051602081830303815290604052925050506116b5565b6116b084611a33565b925050505b919050565b6116d4828260405180602001604052806000815250611a9b565b5050565b6116e28282611af6565b5050565b6001816000016000828254019250508190555050565b60007f80ac58cd000000000000000000000000000000000000000000000000000000007bffffffffffffffffffffffffffffffffffffffffffffffffffffffff1916827bffffffffffffffffffffffffffffffffffffffffffffffffffffffff191614806117c757507f5b5e139f000000000000000000000000000000000000000000000000000000007bffffffffffffffffffffffffffffffffffffffffffffffffffffffff1916827bffffffffffffffffffffffffffffffffffffffffffffffffffffffff1916145b806117d757506117d682611b6a565b5b9050919050565b60008073ffffffffffffffffffffffffffffffffffffffff166002600084815260200190815260200160002060009054906101000a900473ffffffffffffffffffffffffffffffffffffffff1673ffffffffffffffffffffffffffffffffffffffff1614159050919050565b611855838383611bd4565b505050565b505050565b60006118808473ffffffffffffffffffffffffffffffffffffffff16611ce8565b156119e9578373ffffffffffffffffffffffffffffffffffffffff1663150b7a026118a9610ecf565b8786866040518563ffffffff1660e01b81526004016118cb9493929190612bc7565b602060405180830381600087803b1580156118e557600080fd5b505af192505050801561191657506040513d601f19601f8201168201806040525081019061191391906127bb565b60015b611999573d8060008114611946576040519150601f19603f3d011682016040523d82523d6000602084013e61194b565b606091505b50600081511415611991576040517f08c379a000000000000000000000000000000000000000000000000000000000815260040161198890612c70565b60405180910390fd5b805181602001fd5b63150b7a0260e01b7bffffffffffffffffffffffffffffffffffffffffffffffffffffffff1916817bffffffffffffffffffffffffffffffffffffffffffffffffffffffff1916149150506119ee565b600190505b949350505050565b60606040518060400160405280600781526020017f697066733a2f2f00000000000000000000000000000000000000000000000000815250905090565b6060611a3e82610e84565b6000611a486119f6565b90506000815111611a685760405180602001604052806000815250611a93565b80611a7284611d0b565b604051602001611a83929190612b88565b6040516020818303038152906040525b915050919050565b611aa58383611eb8565b611ab2600084848461185f565b611af1576040517f08c379a0000000000000000000000000000000000000000000000000000000008152600401611ae890612c70565b60405180910390fd5b505050565b611aff826117de565b611b3e576040517f08c379a0000000000000000000000000000000000000000000000000000000008152600401611b3590612d70565b60405180910390fd5b80600a60008481526020019081526020016000209080519060200190611b6592919061240f565b505050565b60007f01ffc9a7000000000000000000000000000000000000000000000000000000007bffffffffffffffffffffffffffffffffffffffffffffffffffffffff1916827bffffffffffffffffffffffffffffffffffffffffffffffffffffffff1916149050919050565b611bdf838383612092565b600073ffffffffffffffffffffffffffffffffffffffff168373ffffffffffffffffffffffffffffffffffffffff161415611c2257611c1d81612097565b611c61565b8173ffffffffffffffffffffffffffffffffffffffff168373ffffffffffffffffffffffffffffffffffffffff1614611c6057611c5f83826120e0565b5b5b600073ffffffffffffffffffffffffffffffffffffffff168273ffffffffffffffffffffffffffffffffffffffff161415611ca457611c9f8161224d565b611ce3565b8273ffffffffffffffffffffffffffffffffffffffff168273ffffffffffffffffffffffffffffffffffffffff1614611ce257611ce18282612390565b5b5b505050565b6000808273ffffffffffffffffffffffffffffffffffffffff163b119050919050565b60606000821415611d53576040518060400160405280600181526020017f30000000000000000000000000000000000000000000000000000000000000008152509050611eb3565b600082905060005b60008214611d85578080611d6e90613129565b915050600a82611d7e9190612fab565b9150611d5b565b60008167ffffffffffffffff811115611dc7577f4e487b7100000000000000000000000000000000000000000000000000000000600052604160045260246000fd5b6040519080825280601f01601f191660200182016040528015611df95781602001600182028036833780820191505090505b5090505b60008514611eac57600182611e129190612fdc565b9150600a85611e219190613172565b6030611e2d9190612f55565b60f81b818381518110611e69577f4e487b7100000000000000000000000000000000000000000000000000000000600052603260045260246000fd5b60200101907effffffffffffffffffffffffffffffffffffffffffffffffffffffffffffff1916908160001a905350600a85611ea59190612fab565b9450611dfd565b8093505050505b919050565b600073ffffffffffffffffffffffffffffffffffffffff168273ffffffffffffffffffffffffffffffffffffffff161415611f28576040517f08c379a0000000000000000000000000000000000000000000000000000000008152600401611f1f90612db0565b60405180910390fd5b611f31816117de565b15611f71576040517f08c379a0000000000000000000000000000000000000000000000000000000008152600401611f6890612cd0565b60405180910390fd5b611f7d6000838361184a565b6001600360008473ffffffffffffffffffffffffffffffffffffffff1673ffffffffffffffffffffffffffffffffffffffff1681526020019081526020016000206000828254611fcd9190612f55565b92505081905550816002600083815260200190815260200160002060006101000a81548173ffffffffffffffffffffffffffffffffffffffff021916908373ffffffffffffffffffffffffffffffffffffffff160217905550808273ffffffffffffffffffffffffffffffffffffffff16600073ffffffffffffffffffffffffffffffffffffffff167fddf252ad1be2c89b69c2b068fc378daa952ba7f163c4a11628f55a4df523b3ef60405160405180910390a461208e6000838361185a565b5050565b505050565b6008805490506009600083815260200190815260200160002081905550600881908060018154018082558091505060019003906000526020600020016000909190919091505550565b600060016120ed846109c8565b6120f79190612fdc565b90506000600760008481526020019081526020016000205490508181146121dc576000600660008673ffffffffffffffffffffffffffffffffffffffff1673ffffffffffffffffffffffffffffffffffffffff168152602001908152602001600020600084815260200190815260200160002054905080600660008773ffffffffffffffffffffffffffffffffffffffff1673ffffffffffffffffffffffffffffffffffffffff168152602001908152602001600020600084815260200190815260200160002081905550816007600083815260200190815260200160002081905550505b6007600084815260200190815260200160002060009055600660008573ffffffffffffffffffffffffffffffffffffffff1673ffffffffffffffffffffffffffffffffffffffff16815260200190815260200160002060008381526020019081526020016000206000905550505050565b600060016008805490506122619190612fdc565b90506000600960008481526020019081526020016000205490506000600883815481106122b7577f4e487b7100000000000000000000000000000000000000000000000000000000600052603260045260246000fd5b9060005260206000200154905080600883815481106122ff577f4e487b7100000000000000000000000000000000000000000000000000000000600052603260045260246000fd5b906000526020600020018190555081600960008381526020019081526020016000208190555060096000858152602001908152602001600020600090556008805480612374577f4e487b7100000000000000000000000000000000000000000000000000000000600052603160045260246000fd5b6001900381819060005260206000200160009055905550505050565b600061239b836109c8565b905081600660008573ffffffffffffffffffffffffffffffffffffffff1673ffffffffffffffffffffffffffffffffffffffff168152602001908152602001600020600083815260200190815260200160002081905550806007600084815260200190815260200160002081905550505050565b82805461241b906130c6565b90600052602060002090601f01602090048101928261243d5760008555612484565b82601f1061245657805160ff1916838001178555612484565b82800160010185558215612484579182015b82811115612483578251825591602001919060010190612468565b5b5090506124919190612495565b5090565b5b808211156124ae576000816000905550600101612496565b5090565b60006124c56124c084612eb0565b612e8b565b9050828152602081018484840111156124dd57600080fd5b6124e8848285613084565b509392505050565b60006125036124fe84612ee1565b612e8b565b90508281526020810184848401111561251b57600080fd5b612526848285613084565b509392505050565b60008135905061253d816136cb565b92915050565b600081359050612552816136e2565b92915050565b600081359050612567816136f9565b92915050565b60008151905061257c816136f9565b92915050565b600082601f83011261259357600080fd5b81356125a38482602086016124b2565b91505092915050565b600082601f8301126125bd57600080fd5b81356125cd8482602086016124f0565b91505092915050565b6000813590506125e581613710565b92915050565b6000602082840312156125fd57600080fd5b600061260b8482850161252e565b91505092915050565b6000806040838503121561262757600080fd5b60006126358582860161252e565b92505060206126468582860161252e565b9150509250929050565b60008060006060848603121561266557600080fd5b60006126738682870161252e565b93505060206126848682870161252e565b9250506040612695868287016125d6565b9150509250925092565b600080600080608085870312156126b557600080fd5b60006126c38782880161252e565b94505060206126d48782880161252e565b93505060406126e5878288016125d6565b925050606085013567ffffffffffffffff81111561270257600080fd5b61270e87828801612582565b91505092959194509250565b6000806040838503121561272d57600080fd5b600061273b8582860161252e565b925050602061274c85828601612543565b9150509250929050565b6000806040838503121561276957600080fd5b60006127778582860161252e565b9250506020612788858286016125d6565b9150509250929050565b6000602082840312156127a457600080fd5b60006127b284828501612558565b91505092915050565b6000602082840312156127cd57600080fd5b60006127db8482850161256d565b91505092915050565b6000602082840312156127f657600080fd5b600082013567ffffffffffffffff81111561281057600080fd5b61281c848285016125ac565b91505092915050565b60006020828403121561283757600080fd5b6000612845848285016125d6565b91505092915050565b61285781613010565b82525050565b61286681613022565b82525050565b600061287782612f12565b6128818185612f28565b9350612891818560208601613093565b61289a8161325f565b840191505092915050565b60006128b082612f1d565b6128ba8185612f39565b93506128ca818560208601613093565b6128d38161325f565b840191505092915050565b60006128e982612f1d565b6128f38185612f4a565b9350612903818560208601613093565b80840191505092915050565b600061291c602b83612f39565b915061292782613270565b604082019050919050565b600061293f603283612f39565b915061294a826132bf565b604082019050919050565b6000612962602683612f39565b915061296d8261330e565b604082019050919050565b6000612985602583612f39565b91506129908261335d565b604082019050919050565b60006129a8601c83612f39565b91506129b3826133ac565b602082019050919050565b60006129cb602483612f39565b91506129d6826133d5565b604082019050919050565b60006129ee601283612f39565b91506129f982613424565b602082019050919050565b6000612a11601983612f39565b9150612a1c8261344d565b602082019050919050565b6000612a34602983612f39565b9150612a3f82613476565b604082019050919050565b6000612a57602e83612f39565b9150612a62826134c5565b604082019050919050565b6000612a7a603e83612f39565b9150612a8582613514565b604082019050919050565b6000612a9d602083612f39565b9150612aa882613563565b602082019050919050565b6000612ac0602083612f39565b9150612acb8261358c565b602082019050919050565b6000612ae3601883612f39565b9150612aee826135b5565b602082019050919050565b6000612b06602183612f39565b9150612b11826135de565b604082019050919050565b6000612b29602c83612f39565b9150612b348261362d565b604082019050919050565b6000612b4c602e83612f39565b9150612b578261367c565b604082019050919050565b612b6b8161307a565b82525050565b6000612b7d82846128de565b915081905092915050565b6000612b9482856128de565b9150612ba082846128de565b91508190509392505050565b6000602082019050612bc1600083018461284e565b92915050565b6000608082019050612bdc600083018761284e565b612be9602083018661284e565b612bf66040830185612b62565b8181036060830152612c08818461286c565b905095945050505050565b6000602082019050612c28600083018461285d565b92915050565b60006020820190508181036000830152612c4881846128a5565b905092915050565b60006020820190508181036000830152612c698161290f565b9050919050565b60006020820190508181036000830152612c8981612932565b9050919050565b60006020820190508181036000830152612ca981612955565b9050919050565b60006020820190508181036000830152612cc981612978565b9050919050565b60006020820190508181036000830152612ce98161299b565b9050919050565b60006020820190508181036000830152612d09816129be565b9050919050565b60006020820190508181036000830152612d29816129e1565b9050919050565b60006020820190508181036000830152612d4981612a04565b9050919050565b60006020820190508181036000830152612d6981612a27565b9050919050565b60006020820190508181036000830152612d8981612a4a565b9050919050565b60006020820190508181036000830152612da981612a6d565b9050919050565b60006020820190508181036000830152612dc981612a90565b9050919050565b60006020820190508181036000830152612de981612ab3565b9050919050565b60006020820190508181036000830152612e0981612ad6565b9050919050565b60006020820190508181036000830152612e2981612af9565b9050919050565b60006020820190508181036000830152612e4981612b1c565b9050919050565b60006020820190508181036000830152612e6981612b3f565b9050919050565b6000602082019050612e856000830184612b62565b92915050565b6000612e95612ea6565b9050612ea182826130f8565b919050565b6000604051905090565b600067ffffffffffffffff821115612ecb57612eca613230565b5b612ed48261325f565b9050602081019050919050565b600067ffffffffffffffff821115612efc57612efb613230565b5b612f058261325f565b9050602081019050919050565b600081519050919050565b600081519050919050565b600082825260208201905092915050565b600082825260208201905092915050565b600081905092915050565b6000612f608261307a565b9150612f6b8361307a565b9250827fffffffffffffffffffffffffffffffffffffffffffffffffffffffffffffffff03821115612fa057612f9f6131a3565b5b828201905092915050565b6000612fb68261307a565b9150612fc18361307a565b925082612fd157612fd06131d2565b5b828204905092915050565b6000612fe78261307a565b9150612ff28361307a565b925082821015613005576130046131a3565b5b828203905092915050565b600061301b8261305a565b9050919050565b60008115159050919050565b60007fffffffff0000000000000000000000000000000000000000000000000000000082169050919050565b600073ffffffffffffffffffffffffffffffffffffffff82169050919050565b6000819050919050565b82818337600083830152505050565b60005b838110156130b1578082015181840152602081019050613096565b838111156130c0576000848401525b50505050565b600060028204905060018216806130de57607f821691505b602082108114156130f2576130f1613201565b5b50919050565b6131018261325f565b810181811067ffffffffffffffff821117156131205761311f613230565b5b80604052505050565b60006131348261307a565b91507fffffffffffffffffffffffffffffffffffffffffffffffffffffffffffffffff821415613167576131666131a3565b5b600182019050919050565b600061317d8261307a565b91506131888361307a565b925082613198576131976131d2565b5b828206905092915050565b7f4e487b7100000000000000000000000000000000000000000000000000000000600052601160045260246000fd5b7f4e487b7100000000000000000000000000000000000000000000000000000000600052601260045260246000fd5b7f4e487b7100000000000000000000000000000000000000000000000000000000600052602260045260246000fd5b7f4e487b7100000000000000000000000000000000000000000000000000000000600052604160045260246000fd5b6000601f19601f8301169050919050565b7f455243373231456e756d657261626c653a206f776e657220696e646578206f7560008201527f74206f6620626f756e6473000000000000000000000000000000000000000000602082015250565b7f4552433732313a207472616e7366657220746f206e6f6e20455243373231526560008201527f63656976657220696d706c656d656e7465720000000000000000000000000000602082015250565b7f4f776e61626c653a206e6577206f776e657220697320746865207a65726f206160008201527f6464726573730000000000000000000000000000000000000000000000000000602082015250565b7f4552433732313a207472616e736665722066726f6d20696e636f72726563742060008201527f6f776e6572000000000000000000000000000000000000000000000000000000602082015250565b7f4552433732313a20746f6b656e20616c7265616479206d696e74656400000000600082015250565b7f4552433732313a207472616e7366657220746f20746865207a65726f2061646460008201527f7265737300000000000000000000000000000000000000000000000000000000602082015250565b7f4e465420616c7265616479206d696e7465640000000000000000000000000000600082015250565b7f4552433732313a20617070726f766520746f2063616c6c657200000000000000600082015250565b7f4552433732313a2061646472657373207a65726f206973206e6f74206120766160008201527f6c6964206f776e65720000000000000000000000000000000000000000000000602082015250565b7f45524337323155524953746f726167653a2055524920736574206f66206e6f6e60008201527f6578697374656e7420746f6b656e000000000000000000000000000000000000602082015250565b7f4552433732313a20617070726f76652063616c6c6572206973206e6f7420746f60008201527f6b656e206f776e6572206e6f7220617070726f76656420666f7220616c6c0000602082015250565b7f4552433732313a206d696e7420746f20746865207a65726f2061646472657373600082015250565b7f4f776e61626c653a2063616c6c6572206973206e6f7420746865206f776e6572600082015250565b7f4552433732313a20696e76616c696420746f6b656e2049440000000000000000600082015250565b7f4552433732313a20617070726f76616c20746f2063757272656e74206f776e6560008201527f7200000000000000000000000000000000000000000000000000000000000000602082015250565b7f455243373231456e756d657261626c653a20676c6f62616c20696e646578206f60008201527f7574206f6620626f756e64730000000000000000000000000000000000000000602082015250565b7f4552433732313a2063616c6c6572206973206e6f7420746f6b656e206f776e6560008201527f72206e6f7220617070726f766564000000000000000000000000000000000000602082015250565b6136d481613010565b81146136df57600080fd5b50565b6136eb81613022565b81146136f657600080fd5b50565b6137028161302e565b811461370d57600080fd5b50565b6137198161307a565b811461372457600080fd5b5056fea2646970667358221220a9fc786a8f2ac0574c0fb0c5c97d5b6c70c5d589314ce57db122051b1d6619b964736f6c63430008040033",
    "linkReferences": {},
    "deployedLinkReferences": {}
}